:020000040800F2
:100000006806002089010008830300087B030008BC
:100010007F0300085F020008CD0700080000000011
:100020000000000000000000000000008D04000837
:1000300063020008000000000904000879050008B8
:10004000A3010008A3010008A3010008A301000800
:10005000A3010008A3010008A3010008A3010008F0
:10006000A3010008A3010008A3010008A3010008E0
:10007000A3010008A3010008A3010008A3010008D0
:10008000A3010008A3010008A3010008A3010008C0
:10009000A3010008A3010008A3010008A3010008B0
:1000A000A3010008A3010008A3010008A3010008A0
:1000B000A3010008DD050008A3010008A301000852
:1000C000A3010008A3010008A3010008A301000880
:1000D000A3010008A3010008A3010008A301000870
:1000E000A3010008A3010008A301000800F002F822
:1000F00000F03AF80AA090E8000C82448344AAF188
:100100000107DA4501D100F02FF8AFF2090EBAE885
:100110000F0013F0010F18BFFB1A43F0010318473B
:10012000781D0000981D0000103A24BF78C878C1DF
:10013000FAD8520724BF30C830C144BF04680C60ED
:10014000704700000023002400250026103A28BF35
:1001500078C1FBD8520728BF30C148BF0B60704739
:100160001FB51FBD10B510BD00F044F81146FFF7D4
:10017000F7FF00F0A9FE00F062F803B4FFF7F2FF0A
:1001800003BC00F065F800000948804709480047B3
:10019000FEE7FEE7FEE7FEE7FEE7FEE7FEE7FEE737
:1001A000FEE7FEE704480549054A064B7047000094
:1001B0007D050008ED0000086800002068060020AA
:1001C000680200206802002070477047704710B531
:1001D00000F008F8006810BD10B5044600F002F801
:1001E000046010BD004870470800002000487047B8
:1001F000080000207546FFF7F9FFAE460500694686
:10020000534620F00700854618B020B5FFF7CAFF17
:10021000BDE820404FF000064FF000074FF0000807
:100220004FF0000B21F00701AC46ACE8C009ACE888
:10023000C009ACE8C009ACE8C0098D46704710B5EC
:100240000446AFF300802046BDE81040FFF795BF9D
:1002500001491820ABBEFEE726000200704700BF30
:10026000FEE770472DE9F0410246002500260020F8
:1002700000230024002791F803C00CF00F0591F82B
:1002800003C00CF0100CBCF1000F03D091F802C0B9
:100290004CEA050591F800C0BCF1000F31D014689C
:1002A00000202BE04FF0010C0CFA00F3B1F800C075
:1002B0000CEA03069E4220D183004FF00F0C0CFA8B
:1002C00003F7BC4305FA03FC4CEA040491F803C0AD
:1002D000BCF1280F06D14FF0010C0CFA00FCC2F85B
:1002E00014C00AE091F803C0BCF1480F05D14FF0EB
:1002F000010C0CFA00FCC2F810C0401C0828D1D335
:100300001460B1F800C0BCF1FF0F34DD5468002068
:100310002EE000F1080C4FF0010808FA0CF3B1F8D8
:1003200000C00CEA03069E4221D183004FF00F0C5F
:100330000CFA03F7BC4305FA03FC4CEA040491F8F9
:1003400003C0BCF1280F05D100F1080C08FA0CF825
:10035000C2F8148091F803C0BCF1480F07D100F136
:10036000080C4FF0010808FA0CF8C2F81080401C85
:100370000828CED35460BDE8F08100BFFEE700BF7F
:10038000FEE7704770B5002100230F22C47804B344
:10039000154C246804F4E064C4F5E064210AC1F15A
:1003A0000403CA40447804FA03F1847814402143DA
:1003B00009010E4C0678A155047804F01F050124AC
:1003C000AC4005786D11AD0005F1E025C5F80041A0
:1003D00009E0047804F01F050124AC40044D0678C0
:1003E000761145F8264070BD0CED00E000E400E019
:1003F00080E100E002490143024A116070470000B9
:100400000000FA050CED00E07047000029B1064A33
:10041000D2690243044BDA6104E0034AD2698243A1
:10042000014BDA61704700000010024029B1064A12
:1004300012690243044B1A6104E0034A12698243C1
:10044000014B1A61704700000010024029B1064AB2
:1004500092690243044B9A6104E0034A9269824321
:10046000014B9A61704700000010024029B1064A12
:10047000D2680243044BDA6004E0034AD268824344
:10048000014BDA607047000000100240704710B561
:1004900000F002F810BD00000CB5002001900090A3
:1004A0003348006840F480303149086000BF30486C
:1004B000006800F4003000900198401C0190009802
:1004C00018B90198B0F5A06FF1D12948006800F47F
:1004D000003010B10120009001E000200090009851
:1004E000012843D12348006840F0100021490860EA
:1004F0000846006820F0030008600846006840F0E5
:10050000020008601A484068194948600846406877
:1005100048600846406840F480604860084640688B
:1005200020F47C1048600846406840F4E8104860B9
:100530000846006840F08070086000BF0C48006802
:1005400000F000700028F9D00948406820F003004E
:10055000074948600846406840F00200486000BF14
:100560000348406800F00C000828F9D10CBD0000D9
:1005700000100240002002407047000010B51348F0
:10058000006840F0010011490860084640681049C1
:1005900008400E494860084600680E4908400B496B
:1005A00008600846006820F480200860084640681B
:1005B00020F4FE0048604FF41F008860FFF767FFDB
:1005C0004FF000600449086010BD000000100240B8
:1005D0000000FFF8FFFFF6FE08ED00E010B5012176
:1005E000094800F041F801280CD108480268406829
:1005F000521C40F1000005490A6048600121024890
:1006000000F012F810BD00000004004000000020BF
:1006100021B1028842F08002028004E002884FF695
:100620007F731A4002807047CA430282704721B12B
:10063000028842F00102028004E002884FF6FE7355
:100640001A400280704731B1B0F8442042F40042B1
:10065000A0F8442005E0B0F84420C2F30E02A0F850
:10066000442070478182704702460020138A0B4065
:100670000BB1012000E0002070471AB183890B43C1
:10068000838102E083898B438381704770B50024A6
:1006900000220023058C4FF6FE7635400584028C3F
:1006A0008388048B4FF68F752C40B51E2C400D8827
:1006B0002C43751E2A400D892A434D882A43144D28
:1006C000A8420BD0134DA84208D0134DA84205D024
:1006D000124DA84202D0124DA84213D14FF6F77521
:1006E0002A404D892A434FF6FB752A408D882A43BC
:1006F0004FF6FF652B404FF6FF552B408D892B435E
:10070000CD892B4383800483CD888586028470BD88
:10071000002C0140003401400040014000440140F1
:100720000048014081867047002202881D4B984294
:100730000ED01D4B98420BD0B0F1804F08D01B4B10
:10074000984205D01A4B984202D01A4B984204D1D5
:100750004FF68F731A404B881A43174B984207D0B5
:10076000164B984204D04FF6FF431A40CB881A43E9
:1007700002808B8883850B8803850A4B98420BD0B7
:10078000094B984208D00E4B984205D00D4B984229
:1007900002D00D4B984201D10B7A0386012383824C
:1007A00070470000002C014000340140000400406C
:1007B00000080040000C0040001000400014004001
:1007C00000400140004401400048014000BFFEE7F6
:1007D0000149086849687047000000201FB54FF4C0
:1007E000A060FFF707FE01210220FFF70FFE0121A5
:1007F0000220FFF71BFE00210220FFF717FE012158
:100800001648FFF705FF4720ADF8040040F2E73037
:10081000ADF808000020ADF8060001A90F48FFF769
:1008200083FF01210D48FFF71DFF012211460B48F0
:10083000FFF723FF1D208DF8000001208DF8010037
:1008400000208DF8020001208DF803006846FFF7B4
:1008500099FD01210148FFF7EAFE1FBD0004004099
:10086000490050EAC12018BF04204A0D18BF40F0CB
:10087000010040F2FF72B2EB515F08BF40F002008E
:10088000012808BF052070472DE9F74F144694B0A2
:100890000021C4E902111599079121F00045C949C9
:1008A0008D4206DC1599C4E9000117B00020BDE8AF
:1008B000F08FC549DFF814A3A9423CDD0799C44E67
:1008C0000029C44FC44A1599534619DD00F0D8FFDA
:1008D000554506D0C14AC24B00F0D2FFC4E9000121
:1008E0000AE04FF0D352BE4B00F0CAFF32463B46FF
:1008F00000F0C6FFC4E9000117B00120BDE8F08F89
:1009000000F00CFC554506D0B44AB54B00F006FC8F
:10091000C4E900010AE04FF0D352B14B00F0FEFBF6
:1009200032463B4600F0FAFBC4E9000117B04FF035
:10093000FF30BDE8F08FAB49A942159978DB21F073
:10094000004183468846A84AA84B00F08FFE00224B
:10095000A74B00F0E3FB00F0E9FD099000F015FE65
:1009600006460F469C4A534600F080FE43465A46D0
:1009700000F07AFF80468A46984A994B30463946BD
:1009800000F074FE2A0D01250B924246534600F0FA
:100990006BFF032DC4E9000139D00B98C1F30A5154
:1009A000401A05EB45111139814230DA9148C346AE
:1009B000784400EB0510CDF80CA00C90D0E9002392
:1009C0003046394600F052FE02460B46049106902E
:1009D0005846039900F054FF80468A4602460B466B
:1009E0005846039900F04CFF049B069A00F048FF1C
:1009F00083460C9803913946D0E90223304600F033
:100A000035FE5A46039B00F03BFF6D1CBDE707987F
:100A10000028A2BF099817B0BDE8F08F616881F087
:100A200000416160099817B04042BDE8F08FFFE7D0
:100A300084461598C1F31301C0F30A50A0F2F530B3
:100A40004FEA601800F01F06C6F120001390002046
:100A50000690079041F4801E05206D4676B1664AE7
:100A600008EB00017A4452F8213002EB8101B340D7
:100A70004A68139922FA01F1194305E05F4908EB2E
:100A80000002794451F82210A1FB0E27A1FB0C13A0
:100A90001A449A4234BF0123002303EB070A05EBF3
:100AA0008003D3E901B70F448F4234BF01210021F5
:100AB00093448B4411B1934502D903E0934501D28D
:100AC000012100E00021C3E901B7514445F820109D
:100AD000011EA0F10100C1DC0298059F00F1005049
:100AE000800F12900298DDE90356800000F04DFD62
:100AF000834628460D9100F05FFD6FF01D0201F066
:100B0000F3F8CDE90E01304600F056FD6FF03D02DE
:100B100001F0EAF880468A46384600F04DFD6FF055
:100B20005D0201F0E1F8074642465346119100F09C
:100B3000F5FADDE90E2300F0F1FA5A460D9B00F0BC
:100B4000EDFA00250E465A4628460D9B00F098FE09
:100B5000DDE90E2300F094FE4246534600F090FE7D
:100B60003A46119B00F080FEDFF898A0244A5346D5
:100B700000F07CFD07468846234A244B3146284630
:100B800000F074FD3A46434600F0C8FA074688462E
:100B90004FF0A84253463146284600F067FD3A46DA
:100BA000434600F0BBFA159A12F0004F04D0129A97
:100BB00081F0004152421292C4E90001129817B02C
:100BC000BDE8F08FFB21E93F7CD90240FB21F93FD2
:100BD0007370032E8A19A33B000040543163621ADC
:100BE00061B4D03DFB21394183C8C96D305FE43F1A
:100BF0000000E03FF41300007013000052130000E7
:100C0000182D4454FB21F93D3326A611460B113C07
:100C10002DE9FF4D21F0004807460C46B8F1795FF9
:100C200008DA00F083FC002801BF0020324904B03C
:100C3000BDE8F08D3A4623461046194600F016FDF1
:100C4000054602462D480E460B460621784400F024
:100C50005DF82A46334600F009FDDDE902238246AD
:100C60008B463846214600F001FD04460F465246A9
:100C70005B462846314600F0F9FC22463B4600F030
:100C8000FFFD07468A464FF0FF322846314601F005
:100C90002BF81B4A90450ADA3A46534600F0F0FD1D
:100CA00004B00022BDE8F04D134B00F0DDBD154A45
:100CB0004245A8BFA8F500154FF00004B8BF124D7B
:100CC00022462B4600F0DCFD0646884622462B468F
:100CD0000020094900F0D4FD04460D463A4653462B
:100CE0003046414600F0CCFD04B022462B46BDE81C
:100CF000F04D00F0B9BD00000000F03F28110000E9
:100D00003333D33F0000E93F0000D23F2DE9F041EB
:100D10004F1E00EBC7010446D1E9000115461E46EF
:100D200037F006020DD02A46334600F09FFC7F1EA6
:100D300004EBC703D3E9002300F0F0F937F0060213
:100D4000F1D1022F25D0042F13D0062F18BFBDE8F4
:100D5000F0812A46334600F089FCD4E90A2300F0EA
:100D6000DDF92A46334600F081FCD4E9082300F07F
:100D7000D5F92A46334600F079FCD4E9062300F081
:100D8000CDF92A46334600F071FCD4E9042300F083
:100D9000C5F92A46334600F069FCD4E9022300F085
:100DA000BDF92A46334600F061FCD4E90023BDE8D2
:100DB000F04100F0B3B900002DE9FF4D054621F0E8
:100DC000004084B00C46B0F1795F0BDA2846FFF79B
:100DD00047FD042808BF00F06FF8284608B02146F8
:100DE000BDE8F08D2A460B46104600F03FFC064653
:100DF0000F462A46234600F039FC804626488A469C
:100E000032463B4605217844FFF780FF8346109821
:100E1000029160B3214A224B4046514600F026FC25
:100E2000CDE900015A4640465146029B00F01EFCA7
:100E300082468846DDE906014FF0FF3200F054FF9C
:100E40005246434600F01CFD32463B4600F00EFC85
:100E5000DDE9062300F014FDDDE9002300F010FDBC
:100E600008B02A462346BDE8F04D00F0FDBC0B4615
:100E70005A463046394600F0F9FB084A084B00F064
:100E80004DF94246534600F0F1FB08B02A4623468E
:100E9000BDE8F04D00F042B96610000049555555C7
:100EA0005555C5BF012200F01FBF00221346104652
:100EB000114600F0E3B90000024A0020110700F0DB
:100EC00013BF000001FDFFFF8EB001210420FFF7DA
:100ED000BDFA4FF48070ADF8300003208DF8320079
:100EE00018208DF833000CA94248FFF7BBF9012107
:100EF0001020FFF7ABFA4FF40050ADF8300004209B
:100F00008DF833000CA93C48FFF7ACF90121C80269
:100F1000FFF79CFA0121C802FFF7A8FA00214FF45D
:100F20000060FFF7A3FA40F2E730ADF82800002098
:100F3000ADF826004720ADF8240000208DF82C00E5
:100F400009A92E48FFF7F0FB6020ADF8140000203F
:100F5000ADF81C000120ADF816000020ADF81A0015
:100F600005A92648FFF792FB01212448FFF76BFBF8
:100F700001212248FFF776FB01212048FFF757FBAC
:100F8000FFF72CFC35E0FFF723FC804600F028FB40
:100F900006461B4A1B4B00F069FB044600F08CF828
:100FA0000490049800F056FD8046174A174B00F055
:100FB0005DFBCDE9000100F02FF806460022144B3E
:100FC00000F054FB04460022114B00F0A7F88246C3
:100FD00000F072F803900F49039800F087FD044673
:100FE00000F064FD80B2029004480299FFF79AFB7A
:100FF00000BFC8E70008014000100140002C01407C
:10100000FCA9F1D24D62503FBE9F1A2FDD24FE3F56
:101010000000E03F00007A4400B5254B21F000427B
:1010200087B09A4203DC0022134600922BE0214B4A
:101030009A4208D140B94FF00100FFF7CDF8FFF711
:1010400034FF07B000BD03DBFFF72CFF07B000BD86
:1010500002AAFFF719FC10F003014FF001000DD0B8
:10106000012914D002291AD00DF1080C9CE80F00B8
:10107000FFF7CEFD07B081F0004100BD0DF1080C77
:1010800000909CE80F00FFF797FE07B000BD0DF140
:10109000080C9CE80F00FFF7BBFD07B000BD0DF189
:1010A000080C00909CE80F00FFF786FEE2E70000C6
:1010B000FB21E93F0000F07F21F00042A2F16052E5
:1010C000B2F5801F01F0004328BFD2F17F6C0BD92D
:1010D0005FEA001C43EAC20242EB507018BF70473F
:1010E00028BF20F001007047B2F5801FBCBF184632
:1010F00070474FEA410C1CF5001F02D2084600F071
:10110000BCBD70B500F05CFB00000089FFF7F6BFC6
:101110004FF00040A0F580007047000010B591EA44
:10112000030F48BF83F0004300F1B283841A71EBD0
:10113000030C05D2121943EB0C03001B61EB0C01ED
:10114000DFF824E14FEA1154A4EB135C1EEA430FCD
:1011500018BF9EEA445F73D023EA0E03DCF1200E31
:1011600021EA045143F4801332D322FA0CFE10EB2F
:101170000E0023FA0CFE41EB0E01CCF1200E03FA17
:101180000EFE10EB0E0051F10001B1F5801FCCF105
:10119000200E32D201EB045112FA0EF2BDE81040DB
:1011A00058BF7047401C38BF5FEA420218BF704703
:1011B000002814BF20F0010041F100014FEA410373
:1011C00013F5001F38BF7047A1F1C04100F046BBC6
:1011D000012A43EB0302ACF1200CDCF11F0E32BFFD
:1011E0004FF0000E23FA0CF310EB030041EB045117
:1011F000B4EB115FD0D0A1EB045101F58011490887
:101200005FEA300001EB04510ED350F1000038BF0B
:1012100012FA0EFE08D1BDE81040C9E7401C38BFE5
:101220005FEA4202CAD1C3E7BDE810404FEA41037A
:1012300013F5001F38BF7047A1F1C04100F00EBB8D
:101240009EEA445F08D011EA5E0FBDE8104004BF7B
:1012500001F0004100207047BDE8104070B500F07B
:10126000AFFA00BF64FBBE3E0000E0FF02494FF052
:10127000000000F007BD00BF0000F87F2DE9C0416D
:1012800030B4DFF8A0C23CEA111418BF3CEA1314D2
:1012900000F0EC8081EA03051CEA111444EAD574DD
:1012A00018BF1CEA131500F0C780A4EB05044FF02B
:1012B000004545EAC12145EAC32341EA505143EACA
:1012C000525304F17F74994204F500344FEAC02070
:1012D0004FEAC22208BF904200F09C804FEA13659B
:1012E0000FF24016765D4FEA134506FB05F7C7F18E
:1012F000807706FB07F74FEAD737A7FB03687642EC
:10130000C8F58038A7FB06CE38BFA8F1010807FB57
:1013100008E64FF0000EA6FB028CE6FB03CEDCF1E4
:10132000000CCEF1004E38BFAEF1010EA6FB0C58FA
:101330004FF000074FF00005E6FB0E87A1FB08C643
:10134000A0FB07CE16EB0E0645F10005E1FB076595
:1013500015F1E04E7EBFA4F580345FEA46066D418C
:1013600016F1800745F100054FEA17274FEA066698
:1013700047EA0567A6F1DE46B6F1805F4FEA15251C
:101380001FD9384624F0010C05EBC471BCF1FE6F87
:1013900001EB0C1102D8F0BCBDE8008124425CBF17
:1013A00001F5801E9EEAC47F02D4F0BCBDE8008136
:1013B000244238D4F0BCA1F1C041BDE8004100F0A6
:1013C0004DBA4FEAD22242EA43524FEAD323A7FB57
:1013D00002864FEAD02040EA415007FB03661EEA2E
:1013E0000E0F4FEAD12105FB026658BFA6EB00564F
:1013F000B6EB00564FEA520E4EEAC37E18EB0E0EC5
:1014000056EB530EBDD518EB02085E417F1C55F11B
:101410000005B6E74FF480154FF000074FF00006C7
:101420004FF00008ADE7F0BC4FF0000001F1C04103
:1014300001F00041BDE8008111EA0C1F0CEA131510
:1014400000D00CE013EA0C1F00F025804FF00000E4
:10145000F0BC81EA030101F00041BDE80081F0BC6D
:10146000BDE8004181EA030100F0F8B9F0BCBDE835
:10147000004170B500F0A4F9097EFC3E00F007B809
:1014800081EA03014FF0000001F00041704781EA5A
:10149000030100F0E3B9F0BCBDE800414FF00000EB
:1014A00021497047FFFDFBF9F7F5F4F2F0EEEDEBA3
:1014B000E9E8E6E4E3E1E0DEDDDBDAD8D7D5D4D352
:1014C000D1D0CFCDCCCBCAC8C7C6C5C4C2C1C0BF9E
:1014D000BEBDBCBBBAB9B8B7B6B5B4B3B2B1B0AFA4
:1014E000AEADACABAAA9A8A8A7A6A5A4A3A3A2A188
:1014F000A09F9F9E9D9C9C9B9A9999989797969543
:1015000095949393929191908F8F8E8E8D8C8C8BDE
:101510008B8A898988888787868585848483838266
:10152000828181800000FF070000F87F4FEA4103BD
:101530004FEA5353A3F58063D3F11E03C8BFD3F121
:10154000210C0CDD4FF0004242EAC12242EA505227
:1015500032FA03FC8CEAE17CACEBE1707047102BB3
:10156000C4BF0020704703F5787CBCF1FF3F04D076
:101570006FF0004282EA2100704770B500F020F958
:101580004992248000207047F2E710F0004248BFE3
:101590004042B0FA80F310FA03F10AD0C3F11D0300
:1015A00003F580634FEA415002EB035202EBD12175
:1015B00070474FF000007047B0FA80F310FA03F163
:1015C0000AD0C3F11D0303F580634FEA41504FEA8F
:1015D000035202EBD12170474FF00000704700002A
:1015E000B1FA81F30B3B20D3994010D1B0FA80F3CC
:1015F00010FA03F108BF7047C3F11D0303F58063C0
:101600004FEAD1224FEA415002EB03517047C3F138
:10161000200C20FA0CFC9840C3F1320303F58063E0
:1016200041EA0C0101EB0351704710B5C3F100040E
:10163000C3F1320CC4F1200E0CF5806201FA0EFCED
:1016400021FA04F100FA0EF3E040BDE8104040EA50
:101650000C0001EB025138BF7047401C41F1000102
:101660005B0008BF20F0010070470000DFF848C1B0
:1016700070B51CEA111E1EBF1CEA13159EEA0C0F62
:1016800095EA0C0F00F06F8081EA030423EA4C1303
:101690004EEAD47E21EA4C1141F4801143F48013C8
:1016A000AE44A1FB024CA0FB0365AEF17F7E361970
:1016B00055EB0C05A1FB034C4CF10003A0FB021CF5
:1016C00016EB0C06654153F10003094218BF46F0C2
:1016D000010613F4007F0BD14FEA03314FEA0530C6
:1016E000340341EA155140EA16506FF003020AE054
:1016F0004FEAC3214FEAC520F40241EA555140EABE
:1017000056506FF0020202EB2E4201EB025585EAC1
:10171000CE710AD05FEA440C18BF24F0004450F1A7
:10172000000041F1000120EAD47040F2FE7C6245E5
:1017300000D270BDA84214BF4FF080444FF0404427
:10174000002E08BF0024BEF1806FA8BFA1F1C041E8
:10175000BDE8704080F282804FF0000001F1C0418E
:1017600001F0004170479EEA0C0F0CEA131518BFF8
:1017700095EA0C0F06D04FF0000081EA030E0EF040
:10178000004170BD00F01CF88900013E00F007B870
:1017900000F009B84FEA430C5FEA5C5C08D081EACC
:1017A000030100F05BB84FEA410C5FEA5C5CF6D1E4
:1017B0004FF00000014970470000FF070000F87F6C
:1017C0000EF1020E2EF0030E5EF8046B364205D4C5
:1017D000012A43EB030515F5001F12D8012841EB40
:1017E000010C1CF5001F0CD80ED14FEAD17C15F569
:1017F000001F0CEB4C0C0CF1020C08BF4CEBD37C23
:1018000004E04FF0080C01E04FEAD37C0CEB4C05F0
:1018100026FA05F606F00706B6F1040C06D20EEB22
:10182000860CBDE870404CF0010C6047DFE80CF01E
:10183000090B02024FF000414FF00000A1F500211A
:1018400070BD19461046012851EB010418BFD4F5AC
:10185000001484BF002001F0004170BD0808A0F50D
:1018600000114FEA3101704791EA030F10B581F082
:1018700000413FF55BAC83F0004300F009B8000085
:1018800010B591EA030F48BF83F000433FF54EAC1B
:10189000841A71EB030C07D212198CF0004C43EB45
:1018A0000C03001B61EB0C01DFF8A4E14FEA1154BB
:1018B000A4EB135C1EEA430F18BF9EEA445F00F0DE
:1018C000B08023EA6E03524221EA0451C3EB6E0357
:1018D00038BF5B1EDCF1200E25D322FA0CFE10EB84
:1018E0000E0043FA0CFE41EB0E01CCF1200E03FA80
:1018F0000EFE10EB0E0051F10001CCF1200E29D4A8
:1019000012FA0EF201EB0451BDE8104058BF7047C7
:10191000401C1CBFB2F1004F704700280CBF491C8F
:1019200020F00100704712EB020E43EB030218BFD8
:101930004FF0010E4EEA4202ACF1200CDCF11E0E1B
:1019400054D943FA0CFE10EB0E0051F1FF31CCF1EB
:101950001E0ED5D50EF1010E12FA0EFE404141EBDE
:10196000010101EB445C5FEA5C5C10D910EBDE70B6
:1019700001EB045138BFBEF1004FBDE8104018BF65
:10198000704700280CBF491C20F00100704730D27E
:101990004FEAD42C11F5001124F400641BD0B1FAE5
:1019A00081F20B3AA41AA41ED2F12003914030FA1E
:1019B00003F31943904001EBCC71002C01EB04516F
:1019C000BDE81040A8BF704701F1C0414FF00000D2
:1019D00001F000417047B0FA80F310FA03F100D132
:1019E00010BDE41A173C4805C90AE4E701EB0451AD
:1019F00010BD491001EB0451BDE810404FEA300022
:101A000002E04FF0000170474A0008BF0042F8D0E2
:101A1000B2F5001F28BF704701F000414FF00000F1
:101A200070479EEA445F07D011EA5E0FBDE81040A0
:101A300004BF002100207047BDE8104070B5FFF7DB
:101A4000BFFE00BF40DFF63E83F000411046704706
:101A50000000E0FF43004FEAD30C4FEA3C0C434048
:101A60001FBF40070CF1605113F0FE4F70471CF090
:101A7000006F03D100200CF0004170470CF00043D0
:101A800043EA507010B540EACC0000F0B0F800BF57
:101A9000000000924FEA0001FFF7E0BE4FF0004166
:101AA0004FF00000A1F5002170470000C10DD1F1F9
:101AB0009E0206DB4FEA002343F0004323FA02F0C4
:101AC0007047004207D54FEA4001B1F1FE4F02D204
:101AD0004FF00000704710B500F089F8499224805B
:101AE000002070476FEA2000704700004FF47F0C21
:101AF0001CEAD0121EBF1CEAD11392EA0C0F93EA23
:101B00000C0F00F0478090EA010F48BF42F480724A
:101B10004FF0004C4CEA00204CEA012102EB03029A
:101B2000A0FB0113A2F50002002918BF43F0010336
:101B30005B0028BF4FEA330342EB22425FEA132CDB
:101B40004CEBC2502EBFBCEB436FB2F57C0F70471D
:101B50004FEA036CBCF1004F08BF20F00100B2F562
:101B60007C0F38BF70470BD582F0FF0212F5803F23
:101B7000C8BF704700F1C040D8BF00F000407047B8
:101B800000F5000C5FEA4C0C48BF7047B0F1C04054
:101B900000F073B890EA010F0CEAD11348BF42F489
:101BA0008072624538BF634504D280EA010000F0CC
:101BB0000040704710B500F01AF800BF8900013EE0
:101BC00000F007B800F009B85FEA410C5FEA1C6C4E
:101BD00008D080EA010000F050B85FEA400C5FEAEC
:101BE0001C6CF6D14FF00040A0F5800070470EF15C
:101BF000020E2EF0030E5EF8044B244204D44FEA8A
:101C00004102B2F17F4F11D84FEA4003B3F17F4F49
:101C10000CD80ED14FEAD07CB2F17F4F0CEB4C0CBC
:101C20000CF1020C08BF4CEBD17C04E04FF0080C27
:101C300001E04FEAD17C0CEB4C0324FA03F404F0EE
:101C40000704B4F1040C06D20EEB840CBDE810407E
:101C50004CF0010C6047DFE80CF0070802024FF07F
:101C60000040A0F5800010BD0846420018BFD2F128
:101C7000807288BF00F0004010BDFF2141EAD050C3
:101C8000C00570470CF00F03092B08BF082000F0B7
:101C900059800A2B0BD0082B18BF704708BF1CF0C7
:101CA000400F0AD04FF000004FF0000170471CF0C9
:101CB000400F18BF4FF0004070471CF0100F08D0C5
:101CC00020F0704300F07F4242EAD3014FEA4370B4
:101CD000704700F0604021F07F4242EA000201F0CC
:101CE0007F4040EA727070474FF0FF0C4CF4E06C9C
:101CF0001CEA11531CBF9CEA030C9445C2BFDA4294
:101D000001EB02517047002B0DD0BCF1000F0FD03A
:101D1000002A01F00041A4BF41F0E04141F07F61A1
:101D20004FF00000704701F000414FF00000704795
:101D300050EA01334FF09B0C18BF4CF0806C7FF4DD
:101D400095AA70471CF4801F11D01CF4E02F03D01B
:101D50006FEACC31490070474FF04050EFF30082FA
:101D600022F0704242EA000282F3008870474FF08E
:101D700000007047000000004C5555555555A53FD3
:101D80007751C1166CC156BF9015CB19A001FA3E10
:101D9000AD529C804F7E92BEC4B1B4BD9EEE213E3A
:101DA000D43888BEE9FAA8BD00004054FB21F93FB1
:101DB0003163621A61B4D03D0000601A61B4D03D55
:101DC0007370032E8A19A33B0000002E8A19A33BCF
:101DD000C14920259A837B390000000000000000E3
:101DE0006E83F9A22915444ED15727FCC0DD34F586
:101DF000999562DB4190433CAB6351FE61C5BBDE0C
:101E00003A6E24B7E0D24D42EA2E49061C92D1091F
:101E10001CEB1DFE3EA729B1F53582E88444BB2E9C
:101E200026709CE9417E5FB439D69139F4395383E9
:101E30008B5F849C3B28F9BDFF97F81F0F9805DE48
:101E40008B112FEF1F6D0A5ACF7E366DB709CB2746
:101E5000663F464F2DEA5F9EC7BA27757BF1E5EBDB
:101E6000F739073DEA92528AB15FFB6B085D8D1F1F
:101E7000A6F810111111813FD561C119A0012ABF27
:101E80007DFEB157E31DC73EEB9C2B8AE6E55ABEAB
:101E90007CD5CF5A3AD9E53DB81E00080000002095
:101EA0000800000028010008C01E000808000020EB
:101EB000600600004401000800000000000000006F
:04000005080000ED02
:00000001FF
